:1000000061C17BC17AC179C178C177C176C175C13F
:10001000F1C2CDC372C171C170C16FC16EC16DC17A
:100020006CC16BC16AC17EC17FC180C181C182C107
:1000300083C184C185C186C187C188C189C18AC184
:100040008BC18CC18DC18EC18FC190C191C192C134
:1000500093C194C195C196C197C198C199C19AC1E4
:100060009DC1A0C1A3C1A6C1A9C1ACC1AFC1B2C14C
:10007000B5C1B8C1BBC1BEC1C1C1C4C1C7C1CAC17C
:10008000CDC1D0C1D3C1D6C1D9C1DCC1DFC1E6C7A2
:10009000E7C7E8C7E9C7E6C7E9C7EAC7EBC708C8C3
:1000A00009C80AC854656154696D657220563039B3
:1000B00031313130002E052200340536043A001E5D
:1000C000041E0526003E053E040400200002000038
:1000D0000400010800240022000204000508010CAD
:1000E00000000004001000000400003E011C052A6E
:1000F0000504002400200030001200020002040069
:10010000040005000110011000180008000C000098
:100110000040640044640047640000000034C800EC
:100120004064000064004064004C64004764004088
:10013000640000000040C80543C80043C80043C82D
:100140000043C8050000003B64C83E64C840C800C6
:1001500040C80040C8004064004064643B64C83E3E
:1001600064C84164C840C80040C80040C80040C8D6
:100170000040C8004064643B64C83E64C840C80096
:1001800040C80040C8004064004064643E64C83B0E
:10019000C8003BC8003BC8003BC8003BC8003BC888
:1001A000003BC8003BC80500000039C30539C30542
:1001B0003CC8003CC8003CC30539C30539C80039F8
:1001C000C3053CC8003CC30500C80039C3053CC397
:1001D0000541C80041C30540C80040C80040C305F0
:1001E0003EC3053EC8003EC3053CC8003CC30537BE
:1001F000C30539C3053AC8003AC30537C80037C339
:100200000537C30539C3053AC8003AC30500C8001D
:1002100037C3053AC30540C3053EC3053CC8003C8F
:10022000C30540C80040C30541C80041C30500C81C
:100230000035C30535C30541C80041C80041C800A9
:1002400041C3053EC3053AC3053CC8003CC8003C59
:10025000C8003CC30539C30535C3053AC8003AC3D5
:10026000053CC8003CC3053EC8003EC3053CC80071
:100270003CC8003CC8003CC30535C30535C3054137
:10028000C80041C80041C80041C3053EC3053AC388
:10029000053CC8003CC8003CC8003CC30539C30548
:1002A00035C3053AC8003AC30539C80039C3053714
:1002B000C80037C30535C80035C80035C80035C388
:1002C0000500000011241FBECFE5D4E0DEBFCDBF86
:1002D00010E0A0E6B0E0E4EDF0E102C005900D9280
:1002E000A437B107D9F710E0A4E7B0E001C01D9230
:1002F000A439B107E1F7A3D6EBC682CE20ED37E0F3
:1003000004C0F9013197F1F701970097D1F70895EB
:1003100090E0FC01B597E433F10508F09BC0ED5E79
:10032000FF4F09948DE087C08DE089C08CE05BC0F1
:100330008CE05DC08CE05FC08CE061C08CE063C08D
:100340008CE065C08CE067C08CE069C08CE06BC05D
:100350008CE06DC08CE06FC08CE071C08BE043C05E
:100360008BE045C08BE047C08BE049C08BE04BC0C1
:100370008BE04DC08BE04FC08BE051C08BE053C091
:100380008BE055C08BE057C08BE059C08BE05BC061
:100390008BE05DC08BE085BD81E75DC08BE085BDF6
:1003A0008AE659C08BE085BD84E655C08BE085BDEB
:1003B0008FE551C08BE085BD89E54DC08BE085BDE3
:1003C00084E549C08BE085BD80E545C08BE085BDF7
:1003D0008BE441C08BE085BD87E43DC08BE085BDEB
:1003E00083E439C08AE085BD8DEF35C08AE085BDE4
:1003F0008FEE31C08AE085BD81EE2DC08AE085BDDB
:1004000085ED29C08AE085BD89EC25C08AE085BDDF
:100410008EEB21C08AE085BD83EB1DC08AE085BDDF
:1004200089EA19C08AE085BD8FE915C08AE085BDDB
:1004300086E911C08AE085BD8EE80DC08AE085BDE1
:1004400086E809C08AE085BD8FE705C08AE085BDE2
:1004500087E701C08AE083BD85B5806185BD20ED59
:1004600037E005C0C9010197F1F76150704061158F
:100470007105C1F785B58F7E85BD0895CF92DF9256
:10048000FF920F931F93CF93DF93EC01CC0FDD1FEF
:10049000C80FD91FCF5EDE4F80EDC82E87E0D82E63
:1004A000FE0194912196FE018491082F10E021967F
:1004B000FE01F4902297992311F4C80108C0B801F5
:1004C000892F26DF06C0F6013197F1F701970097D3
:1004D000D1F78F2D90E004C0F6013197F1F7019725
:1004E0000097D1F7012B69F080917500882349F4BA
:1004F00080917700882329F48091790023968823BE
:1005000079F2DF91CF911F910F91FF90DF90CF9003
:10051000089520E030E041E050E0682F70E008C02E
:1005200084912F5F3F4F33968823D1F74F5F5F4F02
:100530004617570744F4F901EE0FFF1FE20FF31FB0
:10054000EE5EFE4FEDCFC90199DF089587E886B9C9
:1005500017B887B1806C87B9369A3699FECF84B1C7
:1005600095B1369A3699FECF24B135B13798C90185
:100570000895809179008823B9F0809179008150A5
:100580008093790080918F00813039F410928F0030
:100590001092850010928600089581E080938F006C
:1005A0008093850010928600089520916000AC0130
:1005B000440F551F222361F0FA01EB54FF4FE491E1
:1005C000EE73E5BB98B34A545F4FFA0184910DC0B6
:1005D000FA01EB54FF4FE491E095EE73E5BB98B35D
:1005E0004A545F4FFA018491809585709A70892BE7
:1005F00088BB08951F920F920FB60F9211242F936C
:100600003F938F939F93979A2AB53BB580916B0048
:1006100090916C002817390791F12AB53BB580916C
:100620006B0090916C002817390790F48AB59BB540
:1006300020916D00820F911D9BBD8ABD2AB53BB5EF
:1006400080916B0090916C008217930700F511C0A8
:100650008AB59BB520916D00821B91099BBD8ABD17
:100660002AB53BB580916B0090916C002817390733
:1006700070F480916B0090916C009BBD8ABD80915D
:100680006B0090916C0090936A0080936900809158
:100690007A008F5F80937A0080917A00823310F124
:1006A00080918700882319F01092870003C081E0B1
:1006B0008093870010927A0080917B008F5F8093F7
:1006C0007B0080917B008C3368F010927B008091DE
:1006D0007C008F5F80937C0080917C008A3010F0DA
:1006E00010927C0080917E00882391F080918000A0
:1006F0008F5F809380009091800080917F00981799
:1007000038F01092800080917E00815080937E00AE
:10071000829913C080917400883C88F480917400A1
:100720008F5F8093740080917400853041F48091D4
:1007300075008F5F8093750002C0109274008399DA
:1007400013C080917600883C88F4809176008F5F9A
:100750008093760080917600853041F48091770017
:100760008F5F8093770002C010927600849913C047
:1007700080917800883C88F4809178008F5F809326
:10078000780080917800853041F4809179008F5F06
:100790008093790002C01092780097989F918F9172
:1007A0003F912F910F900FBE0F901F9018951F92A1
:1007B0000F920FB60F9211242F933F934F935F9395
:1007C0006F937F938F939F93AF93BF93EF93FF9319
:1007D00080917200882309F44EC0809183008823A1
:1007E00011F0919A01C0919880918500882311F0B1
:1007F000959A01C0959880918700882311F0969A68
:1008000001C096988091810090E0CFDE90917100B8
:1008100080917000981720F11092710080916F0004
:10082000813059F480919300883C20F480919300AA
:100830008F5F0AC010926F001BC0809193008230BE
:1008400058F08091930081508093930080919300A1
:100850008195809390000CC081E080936F0008C068
:100860008091900082BF809171008F5F80937100B2
:100870001092720019C0809184008111919880912A
:1008800086008111959880918800811196988091B9
:100890008200882319F086E190E087DE8091930042
:1008A00082BF81E080937200FF91EF91BF91AF9181
:1008B0009F918F917F916F915F914F913F912F9178
:1008C0000F900FBE0F901F90189587B38F6087BB56
:1008D00084B38E6384BB81B3836681BB82B38C6136
:1008E00082BB81E08093830080938400879903C05A
:1008F0008093600002C0109260008F9A84EF91E0B4
:1009000090936200809361008EEE92E09093640079
:100910008093630084E893E0909366008093650081
:1009200088EE93E09093680080936700E199FECF92
:100930002DE830E03FBB2EBBE09A9DB3892F81505C
:10094000843018F4909391001EC081E08093910050
:1009500080919100E199FECF3FBB2EBB8DBB0FB6BE
:10096000F894E29AE19A0FBE20919100E199FECFAE
:100970008EE890E09FBB8EBB20952DBB0FB6F89400
:10098000E29AE19A0FBEE199FECF29E830E03FBB41
:100990002EBBE09A9DB3E199FECF4AE850E05FBBE1
:1009A0004EBBE09A8DB3981749F0E199FECF3FBB5B
:1009B0002EBBE09A8DB380938F001FC081E080939F
:1009C0008F0080918F00E199FECF3FBB2EBB8DBB86
:1009D0000FB6F894E29AE19A0FBE90918F00E199D8
:1009E000FECF5FBB4EBB80E0992309F481E08DBB55
:1009F0000FB6F894E29AE19A0FBE80918F0080932F
:100A00008500109286001092870010928800109244
:100A1000820086E180938100E199FECF2BE830E0EF
:100A20003FBB2EBBE09A9DB3892F8150893018F4CB
:100A3000909392001EC083E0809392008091920078
:100A4000E199FECF3FBB2EBB8DBB0FB6F894E29A67
:100A5000E19A0FBE20919200E199FECF8CE890E0E0
:100A60009FBB8EBB20952DBB0FB6F894E29AE19AFE
:100A70000FBE80E197E297BD86BD82E18EBD85E025
:100A800089BF23E023BF8FB580688FBD809161004F
:100A9000909162009BBD8ABD80916100909162003F
:100AA00090936C0080936B0020936D00849904C038
:100AB000849BFECF83E007C0839B02C081E003C01C
:100AC000839BFECF82E07894089591E08091750039
:100AD000882381F08091750081508093750080910A
:100AE00092008F5F80939200809192008A3010F084
:100AF00090939200809192008093810010928200E6
:100B0000809179008823A1F08091790081508093B1
:100B1000790080918F00813029F410928F0010921B
:100B2000850004C090938F009093850010928600FA
:100B300080917700882339F08091770081508093ED
:100B4000770085E0089580917800883C08F4BECF56
:100B500083E008951092820021E06DE140ED57E0BE
:100B60003DE228C0213019F46093810008C0E22FD3
:100B7000F0E0E455FF4FE491E053E093810088EE0C
:100B800093E0FA013197F1F70197D9F7309381009B
:100B900084EF91E0FA013197F1F70197D9F7273007
:100BA00041F48CED95E0FA013197F1F70197D9F70F
:100BB00020E02F5F80917500882349F480917700B1
:100BC000882329F480917900882309F4CBCF1092EF
:100BD0007700109279001092750081E008951F93BC
:100BE00010927E008CE380937F001092800011E0D1
:100BF00080917E00882349F4809191008093810048
:100C00008091910086DC10937E008091790088238A
:100C100089F01092790010927E00109280008091ED
:100C200091008F5F8093910080919100863010F049
:100C300010939100809177008823D1F21092770071
:100C4000109279001092750020919100E199FECFE9
:100C50008DE890E09FBB8EBB2DBB0FB6F894E29A57
:100C6000E19A0FBE20919100E199FECF8EE890E0CD
:100C70009FBB8EBB20952DBB0FB6F894E29AE19AEC
:100C80000FBE81E01F91089582E0089520918F00AA
:100C9000E199FECF89E890E09FBB8EBB2DBB0FB6DC
:100CA000F894E29AE19A0FBE20918F00E199FECF6D
:100CB0008AE890E09FBB8EBB80E0222309F481E0AC
:100CC0008DBB0FB6F894E29AE19A0FBE2091920084
:100CD000E199FECF8BE890E09FBB8EBB2DBB0FB69A
:100CE000F894E29AE19A0FBE20919200E199FECF2A
:100CF0008CE890E09FBB8EBB20952DBB0FB6F8947F
:100D0000E29AE19A0FBE80916700909168009093FB
:100D10006C0080936B0084E080936D00F8941092D7
:100D20007A0010927B0010927C00789441E08091D0
:100D3000920090917C00891B8093810040938200F7
:100D4000809179008823A1F080917900815080936F
:100D5000790080918F00813029F410928F001092D9
:100D6000850004C040938F00409385001092860058
:100D70002091690030916A0080916B0090916C0025
:100D80002817390711F486E00895809177008823A9
:100D900071F28091770081508093770087E0089509
:100DA00021E08091920090917C00891B80938100CA
:100DB00020938200809179008823A1F080917900AE
:100DC00081508093790080918F00813029F41092B6
:100DD0008F001092850004C020938F00209385001F
:100DE0001092860080917B00843111F489E008958F
:100DF0009091920080917C00981711F487E00895FB
:100E000080917700882369F28091770081508093E8
:100E1000770087E0089581E08093860069E042E0F2
:100E200050E0E2E071E04150504009F466E080910A
:100E300063009091640090936C0080936B00E0934A
:100E40006D0025C08091920090917C00891B809359
:100E5000810070938200809179008823A1F08091B5
:100E6000790081508093790080918F00813029F43E
:100E700010928F001092850004C070938F007093C1
:100E8000850010928600809177008823F1F52091EB
:100E9000690030916A0080916B0090916C00281776
:100EA000390781F6673009F442C08091650090915E
:100EB000660090936C0080936B00E0936D002CC0F3
:100EC0008091920090917C00891B809381007093A7
:100ED0008200809179008823A1F08091790081506F
:100EE0008093790080918F00813029F410928F00D7
:100EF0001092850004C070938F007093850010924B
:100F0000860080917700882339F0809177008150A6
:100F10008093770067E00FC02091690030916A00EC
:100F200080916B0090916C002817390749F64115A4
:100F3000510509F078CF80916700909168009093F7
:100F40006C0080936B0082E080936D0010928600AD
:100F5000862F0895809161009091620090936C00BB
:100F600080936B0083E080936D0041E009C0809125
:100F7000920090917C00891B8093810040938200B5
:100F80002AB53BB58091610090916200821793076A
:100F900070F388E008950F931F9386E080937E009E
:100FA00084E080937F0080918F00882339F08091C6
:100FB0009100AFDA80917C0080937D0006E016E11D
:100FC00080917E00882311F400937E0080917E0042
:100FD000912F981B909381001092820080918F0036
:100FE000882369F090917D0080917C00981739F0FA
:100FF000809191008EDA80917C0080937D008091B9
:101000007500882341F480917700882321F4809132
:1010100079008823A9F2109275001092770081E080
:101020001F910F9108958DE18093810010928200AD
:10103000FFCF8CE18093810010928200FFCF0F934D
:101040001F9380E003E011E001C088E0E82FF0E0AA
:10105000EB30F105B8F5E95BFF4F099436DCF6CFCC
:1010600034DDF4CF77DDF2CFBADDF0CF0FDEEECF97
:1010700097DEECCF809161009091620090936C00BC
:1010800080936B0000936D0009C080919200909155
:101090007C00891B80938100109382002AB53BB5A8
:1010A00080916100909162008217930770F3CDCF19
:1010B00072DFCCCFB0DECACF8DE180938100109279
:1010C0008200FFCF8CE18093810010928200FFCFDD
:0410D000F894FFCFC2
:1010D40001F401EE028403E803F401F4010A0101BE
:0410E400020101C83C
:00000001FF
